:020000040800F2
:1000000058EB002001020008456900086152000811
:1000100061620008090B0008C985000800000000A3
:10002000000000000000000000000000690100085E
:10003000890B000800000000AD010008A98000083D
:100040001B0200081B0200081B0200081B0200081C
:100050001B0200081B0200081B0200081B0200080C
:100060001B0200081B0200081B020008790B000895
:100070001B0200081B0200081B0200081B020008EC
:100080001B0200081B0200081B0200081B020008DC
:10009000190B00081B0200081B0200081B020008C5
:1000A0001B0200081B0200081B0200081B020008BC
:1000B00079810008898100081B0200081B020008E2
:1000C0001B0200081B0200081B0200081B0200089C
:1000D0001B02000899850008A9850008B985000859
:1000E0001B0200081B0200081B02000800000000A1
:1000F0000000000000000000000000000000000000
:1001000000000000000000001B0200081B020008A5
:100110001B020008958200081B0200081B02000851
:100120001B0200081B0200081B0200081B0200083B
:100130001B020008750C00081B0200081B020008C7
:10014000290B00081B0200081B0200081B02000804
:10015000DFF810D000F004FA00480047E9DD00089D
:10016000AFF3008058EB0020224B19680868B0E814
:10017000F00F80F30988BFF36F8F4FF0000080F31A
:1001800011884EF00D0E7047000000000648006810
:10019000006880F3088862B661B6BFF34F8FBFF383
:1001A0006F8F00DF00BF00BF08ED00E0EFF30980B4
:1001B000BFF36F8F0F4B1A6820E9F00F106008B57E
:1001C0004FF0500080F31188BFF34F8FBFF36F8F54
:1001D00018F01AF94FF0000080F31188BDE80840CC
:1001E00019680868B0E8F00F80F30988BFF36F8FD3
:1001F000704700BF98000020EFF3058070470000B3
:100200000648804706480047FEE7FEE7FEE7FEE7B0
:10021000FEE7FEE7FEE7FEE7FEE7FEE77581000882
:10022000510100082DE9F05F0546002092469B46EB
:1002300088460646814640241BE0284641464746FC
:10024000224600F020F853465A46C01A914110D376
:1002500011461846224600F03DF92D1A67EB0108B9
:100260004F4622460120002100F034F917EB000927
:100270004E41201EA4F10104DFDC484631462A46E7
:100280004346BDE8F09F202A04DB203A21FA02F021
:100290000021704721FA02F3D040C2F120029140C0
:1002A00008431946704740EA01039B0703D009E061
:1002B00008C9121F08C0042AFAD203E011F8013B52
:1002C00000F8013B521EF9D27047D2B201E000F8AB
:1002D000012B491EFBD270470022F6E710B51346EA
:1002E0000A4604461946FFF7F0FF204610BD30B518
:1002F00004460020034600E05B1C934203D2E05C0E
:10030000CD5C401BF8D030BDF0B480EA0102D40FC0
:100310004200B2EB410F02D20246084611464A00A3
:1003200042D0C30DDDB2C1F3C752AD1A202D35DA6C
:10033000C1F3160141F4000204B15242C5F1200696
:1003400002FA06F12A411044B3EBD05F23D0C4B1C6
:10035000012DA0EBC35009DCF0BC4FF0004202EAD3
:10036000C352DBB200F5000000F0CCB8400000F151
:10037000807000EBC350A0F1807040EAD17049005A
:1003800009E0490841EAC071A0EBC35000F5000044
:10039000400800EBC350F0BC00F0ABB86142012252
:1003A00002EB4101001BF6E7F0BC704781F0004111
:1003B000AAE780F00040A7E780EA010210B502F04A
:1003C0000043400022D04A001FD0010E01EB126111
:1003D000C0F35600C2F3560240F4000042F400029B
:1003E000A0FB022000047F39140400D0401C50EA16
:1003F000124001D44000491EC2B20C0604EBD010DA
:10040000401C4008802A02D003E0002010BD20F0EC
:100410000100002900DA0020184310BDC10F80EA56
:10042000E0700844CA079623002100F06BB89623B9
:100430000022114600F066B800F0004220F00040B3
:10044000C10DC0F3160040F400007F2901DA00203E
:100450007047962903DCC1F19601C84001E0963946
:100460008840002AF4D04042704720F00040C10D7F
:10047000C0F3160040F400007F2901DA0020704725
:10048000962903DCC1F19601C8407047963988402F
:1004900070470000002801DBC0F10040002901DBAB
:1004A000C1F100418842704730B50B46014600203B
:1004B0002022012409E021FA02F59D4205D303FA26
:1004C00002F5491B04FA02F52844151EA2F10102A7
:1004D000F1DC30BD202A04DB203A00FA02F10020D2
:1004E00070479140C2F1200320FA03F31943904072
:1004F00070470029A8BF7047401C490008BF20F082
:100500000100704710B4B0FA80FC00FA0CF050EA19
:10051000010404BF10BC704749B1CCF1200421FA9A
:1005200004F411FA0CF118BF012121430843A3EB95
:100530000C01CB1D4FEA00614FEA102042BF0020A2
:1005400010BC704700EBC35010440029A4BF10BC7E
:100550007047401C490008BF20F0010010BC7047E4
:10056000064C074D06E0E06840F0010394E8070000
:1005700098471034AC42F6D3FFF7EEFD709C0108AB
:10058000909C010870B58C1810F8015B15F00703FA
:1005900001D110F8013B2A1106D110F8012B03E01C
:1005A00010F8016B01F8016B5B1EF9D12B0705D424
:1005B0000023521E0DD401F8013BFAE710F8013B6D
:1005C000CB1A921C03E013F8015B01F8015B521E89
:1005D000F9D5A142D8D3002070BD000070B53649CE
:1005E000B1F81811344AB2F8162101EB0240FFF7B6
:1005F00015FF324948613049B1F89001FFF717FF04
:1006000006462F49FFF7D8FE04462B49B1F8920160
:10061000FFF70DFF06462A49FFF7CEFE054629469D
:100620002046FFF7C9FE2549086326480862C863CB
:100630002149B1F8D010204AB2F8CE2001EB024097
:10064000FFF7ECFE06462049FFF7B6FE1B4908609F
:100650001E4848634FF07E5008641749B1F8900176
:10066000FFF7E5FE06461649FFF7A6FE1349886226
:100670001149B1F89201FFF7D1FE06461049FFF784
:100680009BFE0E49C8620C49B1F86000FFF7CFFE2F
:1006900006460F49FFF790FE084948640649B1F83D
:1006A0006200FFF7C4FE06460949FFF785FE0349CD
:1006B00088640848C86470BD980200204406002081
:1006C000CDCCCC3D00401C466F12833A0060EA4618
:1006D00000007A440000FA441749B1F82C1301F4E1
:1006E0004041B1F5404F25D11349B1F82C1301F425
:1006F0008051B1F5805F0AD10F49B1F82C1301F494
:100700008071B1F5807F01D1012000E000200A490D
:10071000B1F82C1301F48061B1F5806F0BD106495B
:1007200091F82C1301F04001402901D1022002E090
:10073000002000E0032070479802002010B5614AB5
:10074000D16B106BFFF732FE0446FFF775FE5E4972
:1007500008600846006800284DDD5C48C088012814
:1007600024D1FFF7B9FF18B1FFF7B6FF022810D167
:100770002221574801825349C86BFFF75DFE404272
:10078000544908604F49486BFFF76FFE5249888112
:100790007BE040214E48018200204E4908604949D3
:1007A0004869FFF762FE4C4988816EE0FFF794FFCD
:1007B00018B1FFF791FF022810D12221444801828D
:1007C0004049C86BFFF738FE4042424908603D4946
:1007D000486BFFF74AFE4049888156E022213C4899
:1007E000018200203B4908603649086BFFF73DFE57
:1007F0003949888149E0FFF76FFF18B1FFF76CFFB7
:10080000022825D13148008A012810D12221304800
:1008100001822C49C86BFFF70FFE40422D4908604A
:100820002849486BFFF721FE2B4988812DE02221C2
:10083000274801822349086BFFF7FEFD4042254906
:1008400008602049486BFFF710FE234988811CE0AF
:100850001E48C08801280CD140211D48018200207B
:100860001C49086017494869FFF7FFFD1A4988814C
:100870000BE040211648018200201649086011490A
:10088000486BFFF7F2FD1449888107F009FA114817
:1008900000684FF47A7148430E49086008460068C2
:1008A0004FF6FF7101EA204109484182094800885A
:1008B00081B207488182002007F06AFB042007F01C
:1008C000E1FA10BD4406002000000020980200203C
:1008D000A806002004000020940600200020014902
:1008E0000860704710000020014802490860704706
:1008F000E09304001000002001480249086070479E
:10090000F0490200100000200020014948607047B3
:10091000100000200148024948607047E09304003D
:10092000100000200148024948607047F049020069
:100930001000002041F21000024908800020488089
:1009400048807047080000207047704770B5044623
:100950000D462078032858D16078042855D1641DAD
:100960006178207800F0D2F82849A1F82403E178D2
:10097000A07800F0CBF82549A1F826036179207909
:1009800000F0C4F82149A1F82803E179A07900F02A
:10099000BDF81E49A1F82A03617A207A00F0B6F862
:1009A0001A49A1F84403E17AA07A00F0AFF8174998
:1009B000A1F84603E17BA07B00F0A8F81349A1F859
:1009C0004003617C207C00F0A1F81049A1F84203AB
:1009D000617D207D00F09AF80C49A1F83A03E17D91
:1009E000A07D00F093F80949A1F83C03E17EA07EC8
:1009F00000F08CF80549A1F83603617F207F641F61
:100A000000F084F80149A1F8380370BD9802002075
:100A100010B506220449054805F00AF80446002CE2
:100A200000DA002410BD00006902002038E3002035
:100A300088B0052002900020039000BF00BF002076
:100A40002B49486002208DF811004FF4FB700BF029
:100A500076FBADF8120027A00BF020F805900022DD
:100A6000012102200DF060F92149886008200090E2
:100A700002AB41F206028868D11F0DF015F8002084
:100A8000069007901A491022886804A90BF0A4FA6E
:100A900045B2681C50B94FF0FF301549886088682E
:100AA0000BF01AFA0A200EF0C2FFC8E70120104925
:100AB00048601CE00E4900234FF480728868114999
:100AC0000CF024FD0446002C08DA094988680BF074
:100AD00003FA4FF0FF3006498860B0E717F0D2FA0A
:100AE000A2B20849024804F079FF17F0EBFAE1E7F7
:100AF00038E300203139322E3136382E36302E345C
:100B00003000000048E3002000BFFEE7024601EB92
:100B1000022080B27047000010B5024800F09AFD34
:100B200010BD0000080A002010B5024800F092FD38
:100B300010BD0000300A002070B502460B46FF24AD
:100B4000FF250BE012F8010B80EA0401084830F899
:100B5000110080EA0504074830F81150181EA3F16F
:100B60000106B3B2EED145EA042080B270BD0000A8
:100B7000FC930108FC95010810B5024801F08EF9BC
:100B800010BD0000C4090020704730B50246D2E90C
:100B90003204A04201D1002030BDD2F8C800105C60
:100BA0000870D2F8C800401CC82490FBF4F504FB80
:100BB0001503C2F8C8300120EEE7016801F5805145
:100BC000896921F00202016801F580518A6170474C
:100BD000016801F58051896941F00202016801F55F
:100BE00080518A617047016801F58051896921F45B
:100BF0000052016801F580518A617047016801F572
:100C00008051896941F40052016801F580518A617F
:100C10007047000008B508490968C9084FF47A729E
:100C2000B1FBF2F14143009100BF00BF00994A1EA1
:100C300000920029F9D108BD9400002038B504467F
:100C400000200090206800F58050806940F48011F9
:100C5000206800F580508161206800F5805080692F
:100C600000900120FFF7D6FF0099206800F5805022
:100C7000816138BD10B5024801F076FC10BD00005E
:100C8000C0A5002030B503461479557944EA052003
:100C9000084C0C442064D4782406957844EA054432
:100CA000557844EA0524157844EA0500014C0C44C3
:100CB000606430BD0080024070B5ACB004460E46A2
:100CC000002526B14FF40061E160C900A160002059
:100CD0000F9010901190129013901490E06918B931
:100CE0004FF48060159001E0002015904FF40070E3
:100CF000169000201790189019901A901B90402081
:100D00001C9000201D901E901F90209021902290FA
:100D100023902490802025900020269027902890D2
:100D200029902A902B90206805686F480540DDE9DE
:100D30000F0108431199084312990843A168084319
:100D40001399084314990843E16808431599084327
:100D500016990843179908431899084319990843A5
:100D600005432068056020680568012001F062FAEB
:100D700020680560DDE91A0108431C9908431D99A4
:100D800008431E9908431F99084320990843219955
:100D900008432168486020684568012001F04AFA4C
:100DA0002068456022982168886023982168C8607F
:100DB000206885694FF641700540DDE9241040EA5E
:100DC00001402699084327990843289908432999FF
:100DD000084305432068856120688569012001F08A
:100DE00029FA20688561DDE92A0108432168C86184
:100DF0002068C569012001F01DFA2068C561002046
:100E000000904FF000700190002002904FF400100D
:100E1000039000200490059006900790042008900D
:100E2000C005099040120A9080010B9040120C906E
:100E300000200D900E90206800F5805085692B48A9
:100E40000540DDE90001084302990843039908437E
:100E500004990843059908430699084307990843EC
:100E6000089908430543206800F580508561206893
:100E700000F580508569012001F0DCF9206800F55B
:100E800080508561DDE9090108430B9908430C99FD
:100E900008430D9940EA81000E99084340F400018F
:100EA000206800F580500160206800F580500568DA
:100EB000012001F0BFF9206800F580500560A069AD
:100EC000012809D1206800F58050C069084908430D
:100ED000216801F58051C861002120466269FFF751
:100EE000D1FE2CB070BD00000F8120FF233FDEF843
:100EF0004000010038B504460020009020680068DA
:100F000020F004002168086020680068009001203B
:100F1000FFF780FE00982168086038BD38B50446A8
:100F2000002000902068006840F0040021680860FC
:100F30002068006800900120FFF76CFE009821688F
:100F4000086038BD38B5044600200090206800686D
:100F500020F00800216808602068006800900120E7
:100F6000FFF758FE00982168086038BD38B5044680
:100F7000002000902068006840F0080021680860A8
:100F80002068006800900120FFF744FE0098216867
:100F9000086038BD2DE9F0472C4880782B49497806
:100FA00040EA01272A4840782949097840EA01287F
:100FB000002406E0274830F82400B84200DD02E0B3
:100FC000641C042CF6DB00BF224800EB840045883B
:100FD00000240BE005EB45011E48103000EBC1007A
:100FE00030F82400404500DD02E0641C062CF1DBF3
:100FF00000BF0CB9062400E0641E05EB450115484E
:10100000103000EBC10000EB84004688124A5169A1
:10101000106BFFF7CBF98146FFF70EFA0F49086016
:1010200036B1012E05D0022E06D0032E0AD106E0DD
:1010300000BF04F0E3FA05E004F0BCFB02E0FFF7B8
:101040007DFB00BF00BFBDE8F08700005700002017
:1010500054000020B80200204406002000000020B8
:10106000F0B503460C46002120E0D3F8CC00401C2C
:10107000C82690FBF6F706FB1700D3F8C860B0420D
:1010800001D10020F0BDC82A01D90020FAE7605C38
:10109000D3F8CC609855D3F8CC00401CC82690FB00
:1010A000F6F706FB1705C3F8CC50491C9142DCD378
:1010B0000120E7E772B600BFFEE7000070B52048E8
:1010C000B0F88613B0F88603401C1D4AA2F88603C8
:1010D0003C2933DD00201146A1F886030846B0F90B
:1010E0006803B1F9841348431146B1F982134843A8
:1010F0001146B1F86810451A1248818A408A01EBFE
:1011000000441149486BFFF7B0F91049888106F097
:10111000C7FD4FF47A7045432C44402109480182B1
:101120004FF6FF7000EA2441064841828482002085
:1011300006F02EFF042006F0A5FE00BF70BD0000E3
:1011400098020020A80600204406002094060020F3
:1011500010B50548B0F83801012804D10220034930
:10116000088006F015FF10BD98020020CE06002072
:1011700010B501460020D1E93232D21AC832C82354
:1011800092FBF3F403FB142010BD000010B52348BC
:10119000808B4FF47A714843214908601F48C08B07
:1011A0004FF47A7100FB01F4FFF796FA012803D19E
:1011B00000201C49888112E0FFF78EFA022808D12E
:1011C0001648B0F8D800642803DD002016490880CE
:1011D00005E01649486BFFF748F91249888141211B
:1011E000134801820E4800684FF6FF7101EA204162
:1011F0000F4841820A48008881B20D4881824FF62B
:10120000FF7000EA24410A48C1820483002006F0EE
:10121000BFFE042006F036FE10BD0000980200203C
:101220000400002094060020CE0600204406002082
:10123000A806002010B5024692F82030012B01D0FC
:10124000022B06D1106840690843146860610020D1
:1012500010BD506A40F4802050620120F8E7F0B5DC
:1012600004460D461E4694F8207020688368A868DE
:1012700000B900E000BF012F01D0022F7CD103F0A4
:10128000806030B903F0006018B903F08050002886
:1012900073D0C3F30161022905D9606A40F40000EC
:1012A00060620120F0BD012088403060A86860B90C
:1012B000B5F800C0E86840EA4C5C206800F5C070F2
:1012C00000EB0110C0F800C00FE0D5E901C040EA12
:1012D000CC00D5F80CC040EA0C00D4F800C00CF5E6
:1012E000C07C0CEB011CCCF80000D5F810C02068C5
:1012F00000F5C07000EB0110C0F804C0287D012883
:101300000ED1206800F5C07000EB0110406840F479
:10131000807C206800F5C07000EB0110C0F804C0AC
:10132000D079000692F806C040EA0C4092F805C059
:1013300040EA0C2C10794CEA000C206800F5C070D3
:1013400000EB0110C0F80CC0D078000692F802C083
:1013500040EA0C4092F801C040EA0C2092F800C02C
:1013600040EA0C00D4F800C00CF5C07C0CEB011C6A
:10137000CCF80800206801E016E00FE000F5C0702E
:1013800000EB0110006840F0010C206800F5C0700F
:1013900000EB0110C0F800C0002083E7606A40F451
:1013A0000010606201207DE7606A40F48020606286
:1013B000012077E7F0B504460A46216894F82050EA
:1013C000012D01D0022D7ED1424901F5007108683E
:1013D00040F001000860086820F47C50086008684C
:1013E000566A40EA06200860107D00F01F060120C2
:1013F00000FA06F3C8699843C861A1F50071D06985
:10140000C8B9D1F80C029843C1F80C02908880B298
:10141000968940EA064601F51070576940F8376032
:10142000108880B2168940EA064601F510705769A7
:1014300000EBC7004660D069012819D1D1F80C0231
:101440001843C1F80C02908880B2168840EA06461C
:1014500001F51070576940F83760908980B216899D
:1014600040EA064601F51070576900EBC700466078
:10147000906928B9D1F804029843C1F8040204E045
:10148000D1F804021843C1F80402106928B9D1F850
:1014900014029843C1F8140204E0D1F8140218436E
:1014A000C1F81402106A012804D1D1F81C021843B3
:1014B000C1F81C02D1F8000220F00100C1F80002BE
:1014C0000020F0BDFFE7606A40F4802060620120E8
:1014D000F7E7000000640040704770B5044694F8D8
:1014E0002050012D01D0022D7DD151B92068C06856
:1014F00000F0030080B9606A40F4001060620120CF
:1015000070BD2068006900F0030028B9606A40F4EB
:10151000001060620120F3E7206800F5D87000EB4E
:101520000110006800F004009060906840B92068E5
:1015300000F5D87000EB01100068400D106007E066
:10154000206800F5D87000EB01100068C0085060FA
:10155000206800F5D87000EB0110006800F0020070
:10156000D060206800F5D87000EB0110406800F0F2
:101570000F001061206800F5D87000EB0110406882
:1015800000F47F40000A9061206800F5D87000EBFD
:1015900001104068000C5061206800F5D87000EB25
:1015A000011080681870206800F5D87000EB0110F9
:1015B000806800F47F40000A5870206800F5D870F9
:1015C00000EB0110806800F47F00000C9870206828
:1015D00000F5D87000EB01108068000ED87020680C
:1015E00000F5D87000E02FE000EB0110C068187122
:1015F000206800F5D87000EB0110C06800F47F404F
:10160000000A5871206800F5D87000EB0110C0681E
:1016100000F47F00000C9871206800F5D87000EB92
:101620000110C068000ED87131B92068C06840F060
:1016300020002668F06005E02068006940F0200086
:101640002668306100205BE7606A40F480206062B9
:10165000012055E72DE9F05F044600252068466922
:101660002068D0F80490206887682068D0F80CA023
:101670002068D0F810B02068D0F8188006F001007B
:10168000002855D007F00100C0B101202168886012
:1016900007F0020018B1204600F0FBFA0EE007F058
:1016A000040010B145F4006508E007F0080010B12F
:1016B00045F4805502E0204600F0EAFA07F4807015
:1016C000C8B14FF480702168886007F4007018B1C9
:1016D000204600F0E0FA0EE007F4806010B145F417
:1016E000005508E007F4006010B145F4804502E0C1
:1016F000204600F0CFFA07F48030C8B14FF48030B4
:101700002168886007F4003018B1204600F0C5FA5F
:101710000EE007F4802010B145F4004508E007F41E
:10172000002010B145F4803502E0204600F0B4FA04
:1017300006F0080038B10AF0100020B145F4007539
:1017400010202168C86006F0040040B10AF00800CB
:1017500028B108202168C860204600F027FA06F06A
:10176000020038B12068C06800F0030010B12046C4
:1017700000F01EFA06F0400038B10BF0100020B166
:1017800045F4806510202168086106F0200040B112
:101790000BF0080028B1082021680861204600F0FD
:1017A00045FA06F0100038B12068006900F0030027
:1017B00010B1204600F03BFA06F4003040B109F0C9
:1017C000100028B1102021684860204600F030FA4F
:1017D00006F4803040B109F0080028B108202168E3
:1017E0004860204600F05AFA06F4004088B309F039
:1017F000040078B306F4807020B108F0010008B14D
:1018000045F0010506F4007020B108F0020008B1AF
:1018100045F0020506F4806020B108F0040008B12C
:1018200045F0040506F40060A0B108F0700088B12E
:1018300008F07000402817D006DC10280BD02028B4
:101840000CD0302819D10CE0502810D0602814D1C9
:1018500010E01DE019E045F008050FE045F0100527
:101860000CE045F0200509E045F0400506E045F0B4
:10187000800503E045F4807500E000BF00BF2068EC
:10188000806920F070002168886104202168486028
:101890002DB1606A284360622046FFF71DFEBDE857
:1018A000F09F70B504460CB9012070BD94F820007B
:1018B00010B9204600F0B6F82068006820F0020059
:1018C000216808602068006840F001002168086015
:1018D00001F0BAFB05460DE001F0B6FB401B0A28FB
:1018E00008D9606A40F400306062052084F8200066
:1018F0000120DAE72068406800F001000028EBD002
:101900002068006820F002002168086001F09CFB5C
:1019100005460DE001F098FB401B0A2808D9606AD3
:1019200040F400306062052084F820000120BCE70C
:101930002068406800F002000028EBD1207E0128DA
:1019400006D12068006840F080002168086005E04A
:101950002068006820F0800021680860607E01280F
:1019600006D12068006840F040002168086005E06A
:101970002068006820F0400021680860A07E0128EF
:1019800006D12068006840F020002168086005E06A
:101990002068006820F0200021680860E07E0128AF
:1019A00006D12068006820F010002168086005E07A
:1019B0002068006840F0100021680860207F01283E
:1019C00006D12068006840F008002168086005E042
:1019D0002068006820F0080021680860607F012806
:1019E00006D12068006840F004002168086005E026
:1019F0002068006820F0040021680860D4E9020132
:101A0000084321690843616908436168491E084326
:101A10002168C86100206062012084F82000002055
:101A200043E7000010B586B0044600200290039002
:101A3000049005905649206888424BD1554800686B
:101A4000401C544908600846006801280DD100BFB9
:101A50005148C06940F000704F49C8610846C069EC
:101A600000F00070019000BF00BF00BF4A488069CD
:101A700040F02000484988610846806900F0200055
:101A8000019000BF00BF01200290002003900120C0
:101A9000049002A9414801F02FF90220029003901E
:101AA0000320059002A93D4801F026F900BF3C49FA
:101AB000486820F4C04040F0E06040F4C040486016
:101AC00000BF00220521142001F048FD142001F080
:101AD00035FD5BE033492068884257D100BF2E486E
:101AE000C06940F080602C49C8610846C06900F0B8
:101AF0008060019000BF00BF26480068401C254957
:101B000008600846006801280DD100BF2248C0695E
:101B100040F000702049C8610846C06900F00070BC
:101B2000019000BF00BF00BF1B48806940F0080063
:101B3000194988610846806900F00800019000BFDB
:101B400000BF20200290002003900120049002A9F1
:101B5000154801F0D1F840200290022003900320A4
:101B6000059002A9104801F0C7F800BF0C49486869
:101B700040F0E06040F48000486000BF0022052192
:101B8000402001F0EBFC402001F0D8FC06B010BD75
:101B90000064004084000020001002400014014056
:101BA0000000014000680040000C01407047000048
:101BB00010B504461349206888420FD1124B134ACE
:101BC00000211348FFF789FC40B902211048FFF7B4
:101BD00031FB01210F4800680EF0ECF80E49206837
:101BE00088420DD10D4B0E4A00210E48FFF775FCBF
:101BF00030B902210B48FFF71DFB01200A498880FC
:101C000010BD0000006400402C020020FCE0002019
:101C1000080A0020700000200068004048020020F0
:101C200030E10020300A0020940600207047704701
:101C3000704770B5044694F82000012822D1022094
:101C400084F820002068006820F001002168086006
:101C500001F0FAF905460DE001F0F6F9401B0A28FB
:101C600008D9606A40F400306062052084F82000E2
:101C7000012070BD2068406800F001000028EBD111
:101C80006062F6E7606A40F4002060620120F0E7DD
:101C900070477047704770477047704770470146FC
:101CA000002291F82100022808D00420886300BF98
:101CB000002081F8200000BF0120704708680068FC
:101CC00020F00E000B6818600868006820F0010022
:101CD0000B68186091F8403001209840CB6B586039
:101CE000012081F8210000BF002081F8200000BF02
:101CF0001046E2E770B50446002594F8210002285A
:101D000003D00420A0630125C1E02068006820F012
:101D10000E00216808602068006820F0010021683A
:101D200008605C492068884252D95A49783920684D
:101D3000884201D1012047E0564964392068884231
:101D400001D1102040E0534950392068884201D128
:101D5000801539E04F493C392068884201D1801410
:101D600032E04C4928392068884202D14FF4803053
:101D70002AE0484914392068884202D14FF4801083
:101D800022E044492068884201D140041CE04249D5
:101D90002068884201D1012016E03F4914312068B3
:101DA000884201D110200FE03B4928312068884249
:101DB00001D1801508E038493C312068884201D1C2
:101DC000801401E04FF480303349091F086051E06E
:101DD000304978392068884201D1012047E02D49F7
:101DE00064392068884201D1102040E029495039E7
:101DF0002068884201D1801539E026493C392068A5
:101E0000884201D1801432E0224928392068884272
:101E100002D14FF480302AE01E49143920688842EC
:101E200002D14FF4801022E01A492068884201D183
:101E300040041CE018492068884201D1012016E0C6
:101E4000154914312068884201D110200FE0124951
:101E500028312068884201D1801508E00E493C31C4
:101E60002068884201D1801401E04FF48030094994
:101E700080394860012084F8210000BF002084F8E8
:101E8000200000BF606B10B12046616B8847284678
:101E900070BD0000800002400804024070B5044696
:101EA000E06B05682068066894F8401004208840BC
:101EB0002840002875D006F004000028FAD02068D9
:101EC000006800F0200028B92068006820F00400B5
:101ED00021680860D5492068884254D9D3497839A7
:101EE0002068884201D1042049E0D0496439206843
:101EF000884201D1402042E0CC49503920688842D4
:101F000001D100153BE0C9493C392068884202D123
:101F10004FF4804033E0C54928392068884202D117
:101F20004FF480202BE0C14914392068884202D147
:101F30004FF4800023E0BD492068884201D1C004ED
:101F40001DE0BB492068884201D1042017E0B84950
:101F500014312068884201D1402010E0B449283172
:101F60002068884201D1001509E0B1493C31206860
:101F7000884202D14FF4804001E04FF48020AC4908
:101F8000091F086054E0A94978392068884201D1C6
:101F900004204AE0A54964392068884202D14020E3
:101FA00043E04CE0A14950392068884201D1001536
:101FB0003BE09E493C392068884202D14FF4804082
:101FC00033E09A4928392068884202D14FF48020B2
:101FD0002BE0964914392068884202D14FF48000E2
:101FE00023E092492068884201D1C0041DE0904955
:101FF0002068884201D1042017E08D4914312068FF
:10200000884201D1402010E0894928312068884267
:1020100001D1001509E086493C312068884202D18F
:102020004FF4804001E04FF48020804980394860BF
:10203000E06A002802D02046E16A8847F4E094F87C
:102040004010022088402840002871D006F002008D
:102050000028FAD02068006800F0200040B920680D
:10206000006820F00A0021680860012084F821003F
:102070006E492068884254D96C4978392068884272
:1020800001D1022049E0694964392068884201D1C0
:10209000202042E0654950392068884201D140152E
:1020A0003BE062493C392068884202D14FF400503D
:1020B00033E05E4928392068884202D14FF400306D
:1020C0002BE05A4914392068884202D14FF400109D
:1020D00023E056492068884201D180041DE054491C
:1020E0002068884201D1022017E05149143120684C
:1020F000884201D1202010E04D49283120688842D3
:1021000001D1401509E04A493C312068884202D19A
:102110004FF4005001E04FF400304549091F0860BA
:1021200054E0424978392068884202D102204AE0CE
:1021300057E03E4964392068884201D1202042E0BE
:102140003A4950392068884201D140153BE037496F
:102150003C392068884202D14FF4005033E03349C3
:1021600028392068884202D14FF400302BE02F49F3
:1021700014392068884202D14FF4001023E02B4923
:102180002068884201D180041DE0294920688842E6
:1021900001D1022017E0264914312068884201D17C
:1021A000202010E0224928312068884201D14015C2
:1021B00009E01F493C312068884202D14FF40050A9
:1021C00001E04FF4003019498039486000BF002019
:1021D00084F8200000BFA06A30B32046A16A884777
:1021E00022E094F84010082088402840E0B106F032
:1021F0000800C8B12068006820F00E00216808605F
:1022000094F8401001208840E16B48600120A063F1
:1022100084F8210000BF002084F8200000BF206B5C
:1022200010B12046216B884770BD0000800002403D
:102230000804024070B5044600F006FF0646254635
:10224000681C10B104480078054400BF00F0FCFE93
:10225000801BA842FAD370BD9000002070B50546DF
:102260000C46002600BF95F84500012801D1022048
:1022700070BD012085F8450000BF022085F84400AC
:10228000002C6DD02868066843480640D4E9000158
:102290000843A1680843E1680843A9680843216925
:1022A000084361690843E9680843A1690843E16993
:1022B0000843216A0843616A0843A16A0843064348
:1022C00028680660286806680120FFF7B3FF2868C1
:1022D0000660D4E90B010843616B0843A16B084316
:1022E000E16B0843216C0843616C0843A16C08430F
:1022F00029684860286846680120FFF79BFF286826
:102300004660E06C29688860206D2968C86028688C
:1023100086694FF641700640B4F85410A06D40EA4B
:102320000140E16D0843216E0843616E0843A16ED0
:102330000843064328688661286886690120FFF7FC
:1023400079FF28688661D4E91B0108432968C861C0
:102350002868C6690120FFF76DFF2868C66110E094
:102360002868066826F49046D5E90201084306432A
:1023700028680660286806680120FFF75BFF286868
:102380000660012085F8440000BF002085F8450064
:1023900000BF00BF6CE700000F8120FF70B504464E
:1023A0000D461646002200BF94F84500012801D1D1
:1023B000022070BD012084F8450000BF022084F88F
:1023C0004400A56200221FE005EB02114FF000401F
:1023D000086044F2F4504860C2EBC21000EB4000C9
:1023E00006EB80008860A069012803D1486820F0CE
:1023F00000404860581E904204D905EB021010308E
:10240000C86000E0CD60521C9A42DDD3206800F520
:102410008050C560012084F8440000BF002084F88B
:10242000450000BF00BFC4E770B504460D46164620
:10243000002200BF94F84500012801D1022070BDA0
:10244000012084F8450000BF022084F84400E562C2
:1024500000221BE005EB02114FF480100860C2EB74
:10246000C21000EB400006EB80008860E06918B9FC
:10247000086840F440000860581E904204D905EBFB
:1024800002101030C86000E0CD60521C9A42E1D3C7
:10249000206800F580500561012084F8440000BFE9
:1024A000002084F8450000BF00BFC8E77047014620
:1024B000002200BF91F84500012801D10220704799
:1024C000012081F8450000BF022081F844003AE075
:1024D000521C886A006800F44070B0F5007F07D194
:1024E000886A086301238B63886AC06888622AE06F
:1024F000886A006800F4407030B9886B401C8863BB
:10250000886AC06888621EE08B6A4B63886B401CD7
:102510008863886B012801D1886A0863886A00682B
:10252000C0F30D40001FC863086B83680B64886AA2
:10253000C0688862012081F8440000BF002081F853
:10254000450000BFBBE7886A006800F0004008B99A
:10255000082ABDD3012081F8440000BF002081F883
:10256000450000BF0120AAE710B50446206800F529
:102570008050406900F0400040280FD1204600F014
:1025800077FA4021206800F580504161012084F8ED
:10259000440000BF002084F8450016E0206800F5E4
:1025A0008050406900F0010078B1204600F05BFBEC
:1025B0000121206800F580504161012084F8440029
:1025C00000BF002084F8450000BF4FF48031206830
:1025D00000F580504161206800F58050406900F4AA
:1025E0000040B0F5004F10D12046FFF75FFF4FF4D9
:1025F0000041206800F580504161012084F84400CA
:1026000000BF002084F8450000BF10BD2DE9F8434D
:1026100004460025002000908D4E0027804614B906
:102620000120BDE8F88394F8440028B9002084F81C
:102630004500204600F014F98648406820F4000068
:102640008449486008464068216A084381494860D7
:10265000206800F58050006840F00101206800F516
:102660008050016000F0F0FC07460FE000F0ECFC49
:10267000C01BB0F5FA7F09D9032084F8440000BFDD
:10268000002084F8450000BF0320CAE7206800F559
:102690008050006800F001000028E7D1206805693B
:1026A00025F01C0501F0B6FA06466B48864205D3B4
:1026B0006A48864202D245F0080509E0674886422A
:1026C00005D36348864202D245F00C0500E000BF06
:1026D000206805614FF400420021204600F0C4FA52
:1026E00048B14FF0010841462046FEF7E5FA0120C7
:1026F00084F8440095E7FF20FFF79CFD6068002800
:1027000071D000F0A1FC074600BF6A4601212046B7
:1027100000F064F900F098FCC01B41F28831884257
:102720000FD94FF0010841462046FEF7C5FA0120B7
:1027300084F8440000BF002084F8450000BF032057
:102740006FE7009800F004000428DED18202002127
:10275000204600F089FA48B14FF001084146204672
:10276000FEF7AAFA012084F844005AE700F06CFC56
:10277000074600BF6A460121204600F02FF900F00D
:1027800063FCC01B41F2883188420FD94FF0010829
:1027900041462046FEF790FA012084F8440000BF2D
:1027A000002084F8450000BF03203AE7009800F0BD
:1027B00020002028DED16A460021204600F00EF9D4
:1027C00048B14FF0010841462046FEF775FA012056
:1027D00084F8440025E7009800F4807020B14FF49D
:1027E0000061E16002E00EE00021E160009800F489
:1027F0000050B0F5005F02D10021A1601EE04FF44F
:102800008041A1601AE0E068C0F3CF00A168C1F385
:102810004F0140EA01020021204600F025FA48B1AC
:102820004FF0010841462046FEF746FA012084F8A1
:102830004400F6E640F6FF70FFF7FCFC41462046F8
:10284000FEF73AFA012084F844000020E9E600008F
:102850000087930300000140002D3101C00E1602D5
:1028600010B586B0044600200290039004900590B5
:102870005349206888427DD100BF00BF514840695C
:1028800040F480404F4948610846406900F4804068
:10289000019000BF00BF00BF0846406940F40040FF
:1028A00048610846406900F40040019000BF00BF45
:1028B00000BF0846406940F48030486108464069DE
:1028C00000F48030019000BF00BF00BF00BF084689
:1028D000806940F0100088610846806900F01000AF
:1028E000019000BF00BF00BF0846806940F00400AF
:1028F00088610846806900F00400019000BF00BFB5
:1029000000BF0846806940F0080088610846806979
:1029100000F00800019000BF00BF00BF08468069BA
:1029200040F0200088610846806900F02000019096
:1029300000BF00BF0220029003900320059002A96F
:10294000214800F0D9F90220029000200390049061
:1029500002A91E4800F0D0F9042002900220039042
:102960000320059002A9194800F0C6F94FF4605001
:10297000029000E022E0022003900320059002A9CB
:10298000134800F0B9F94FF4E06002900020039082
:10299000049002A90F4800F0AFF900BF0E49486843
:1029A00040F0E06040F40010486000BF00220521C4
:1029B0003D2000F0D3FD3D2000F0C0FD06B010BD6D
:1029C0000080024000100240001001400008014059
:1029D000000C014000140140000001402DE9F041CD
:1029E00004460E4617460025A84694F8440082285F
:1029F00002D10220BDE8F081822084F844002068E2
:102A0000056905F01C05208A4FF4784101EAC020D1
:102A10000543481100EA8610054325F0020545F0FC
:102A200001052068056100F00FFB804612E000F010
:102A30000BFBA0EB0800B0F5803F09D3012084F820
:102A4000440000BF002084F8450000BF0320D1E708
:102A50002068056905F001000028E8D12068406978
:102A600080B23860012084F844000020C2E70000F2
:102A700010B50446024800680DF040F910BD000092
:102A8000F800002010B5044600BF94F84500012866
:102A900001D1022010BD012084F8450000BF0220B2
:102AA00084F844002046FEF761FA2046FEF736FA25
:102AB0002046FEF7C3F82046FEF7A0F82046FEF7B2
:102AC00087F8012084F8440000BF002084F8450006
:102AD00000BF00BFDEE710B5044600BF94F8450014
:102AE000012801D1022010BD012084F8450000BF5B
:102AF000022084F844002046FEF775F82046FEF7D1
:102B00005CF82046FEF7F6F92046FEF797F82046D7
:102B1000FEF718FA012084F8440000BF002084F872
:102B2000450000BF00BFDEE770B502460023002568
:102B3000002400BF92F84500012801D1022070BD99
:102B4000012082F8450000BF022082F8440049B904
:102B5000012082F8440000BF002082F8450000BF39
:102B60000120ECE7D06A006800F0004048B1122074
:102B700082F8440000BF002082F8450000BF012019
:102B8000DDE740F2F450814208D9B1FBF0F3B1FB2C
:102B9000F0F600FB161010B15B1C00E00123012BC6
:102BA00013D1D06A006840F04050D66A3060C1F35B
:102BB0000C00D66A7060D06A006840F00040D66AA7
:102BC0003060D06AC068D06232E000242EE0D06A63
:102BD000006820F04050D66A30602CB9D06A006896
:102BE00040F08050D66A306040F2F450D66A70608F
:102BF000581EA04210D1D06A006840F00050D66A3A
:102C00003060581EC0EBC01000EB4000A1EB800507
:102C1000C5F30C00D66A7060D06A006840F00040CE
:102C2000D66A3060D06AC068D062641C9C42CED341
:102C3000106800F58050406900F0040048B1042697
:102C4000106800F5805046610026106800F580503D
:102C50004660012082F8440000BF002082F8450051
:102C600000BF00BF6BE770472DE9F04104460E46F8
:102C700017460025A84694F84400422802D10220B5
:102C8000BDE8F081422084F844002068056905F021
:102C90001C05208A4FF4784101EAC0200543481101
:102CA00000EA8610054345F0020545F00105B8B27B
:102CB000216848612068056100F0C6F9804612E08D
:102CC00000F0C2F9A0EB0800B0F5803F09D3012065
:102CD00084F8440000BF002084F8450000BF0320B2
:102CE000CEE72068056905F001000028E8D1012041
:102CF00084F844000020C3E72DE9F847034600228A
:102D000094466EE14FF0010808FA02F4D1F8008011
:102D100008EA0400A0427DD1DFF8DCA2D1F80480EB
:102D2000A8EB0A09D0453AD014DCB8F1030F50D013
:102D300009DCB8F1000F31D0B8F1010F1CD0B8F1A7
:102D4000020F49D120E0B8F1110F18D0B8F1120FDD
:102D500042D11EE0B9F5881F25D006DCB9F5803FC9
:102D600020D0B9F5801F37D11AE0B9F5001F18D06F
:102D7000B9F5041F30D117E0D1F80CC02DE0D1F81F
:102D80000C8008F1040C28E0D1F80C8008F1080C44
:102D900023E0D1F80C8008F10C0C1EE000BF00BF4E
:102DA00000BF00BF00BF00BFD1F80880B8F1000F1E
:102DB00002D14FF0040C0BE0D1F80880B8F1010FFC
:102DC00003D14FF0080C1C6102E04FF0080C5C616D
:102DD00003E04FF0000C00E000BF00BFFF2801D867
:102DE000984601E003F104084646FF2802D84FEA5E
:102DF000820803E0A2F108084FEA88084746D6F89F
:102E000000804FF00F0909FA07F928EA09080CFABF
:102E100007F900E088E048EA0908C6F80080D1F820
:102E2000048008F08058B8F1805F7DD100BFDFF8E2
:102E3000CC81D8F8188048F00108DFF8C091C9F8B3
:102E40001880C846D8F8188008F00108CDF800802E
:102E500000BF00BF4FEAB9384FEA920958F829502D
:102E60004FEA82784FEA18794FF00F0808FA09F80C
:102E700025EA0805DFF88881434502D14FF00008B4
:102E800016E0DFF88081434502D14FF001080FE0E2
:102E9000DFF87481434502D14FF0020808E0DFF803
:102EA0006C81434502D14FF0030801E04FF0040864
:102EB0004FEA82794FEA197908FA09F848EA0505D4
:102EC000DFF84C814FEA920948F82950D1F8048084
:102ED00008F48038B8F5803F0AD1DFF83881D8F897
:102EE000008048EA0008DFF82C91C9F8008009E06A
:102EF000DFF82081D8F8008028EA0008DFF8149174
:102F0000C9F80080D1F8048008F40038B8F5003F13
:102F100010D1DFF8008108F10408D8F8008048EAF1
:102F20000008DFF8F09000E05AE009F10409C9F860
:102F300000800DE0DFF8DC8008F10408D8F800809C
:102F400028EA0008DFF8CC9009F10409C9F80080EC
:102F5000D1F8048008F48018B8F5801F0ED1DFF88E
:102F6000B48008F10808D8F8008048EA0008DFF8C3
:102F7000A49009F10809C9F800800DE0DFF89480F9
:102F800008F10808D8F8008028EA0008DFF88490E3
:102F900009F10809C9F80080D1F8048008F4001884
:102FA000B8F5001F0ED1DFF86C8008F10C08D8F8D6
:102FB000008048EA0008DFF85C9009F10C09C9F8C4
:102FC00000800DE0DFF84C8008F10C08D8F8008094
:102FD00028EA0008DFF83C9009F10C09C9F80080E4
:102FE000521CD1F8008028FA02F8B8F1000F7FF4E3
:102FF00089AEBDE8F8870000000011100010024003
:1030000000080140000C0140001001400014014084
:103010000800014000040140024693680B400BB1D8
:10302000012000E00020704710B5C26821EA0203C9
:1030300002EA010443EA0443036110BD0AB10161DD
:1030400001E00B040361704701480068704700000D
:103050008800002070B504460CB9012070BD94F8BA
:103060003D0028B9002084F83C00204600F08CF98F
:10307000242084F83D002068006820F001002168C9
:1030800008602068006840F40040216808602068FB
:10309000006820F400402168086000F0C1FD05468A
:1030A0005C496068884206D85B48854201D20120AD
:1030B00007E0002005E05948854201D2012000E0E8
:1030C0000020012800D1C9E75548B5FBF0F620687B
:1030D000406820F03F003043216848604D496068F7
:1030E000884201D8701C07E04FF4967070434FF48B
:1030F0007A71B0FBF1F0401C2168096A21F03F01B0
:1031000008432168086243496068884214D8681EF1
:1031100061684900B0FBF1F0401CC0F30B000428CB
:1031200001D204203DE0681E61684900B0FBF1F067
:10313000401CC0F30B0034E0A06838B9681E616819
:1031400001EB4101B0FBF1F0401C0AE0681E616830
:1031500001EBC10202EB0111B0FBF1F0401C40F4A5
:103160008040C0F30B0008B901201AE0A06848B9FC
:10317000681E616801EB4101B0FBF1F0401CC0F337
:103180000B000CE0681E616801EBC10202EB01114B
:10319000B0FBF1F0401CC0F30B0040F4804040F461
:1031A00000402168C9694CF6FF72914308432168C9
:1031B000C861D4E9070108432168096821F0C0010A
:1031C000084321680860D4E903100843216889682E
:1031D00048F2FF329143084321688860D4E9050131
:1031E00008432168C96821F0FF0108432168C860CD
:1031F0002068006840F00100216808600020206419
:10320000202084F83D000020206384F83E0000BFA9
:1032100024E70000A086010080841E0000093D0014
:1032200040420F002DE9FC5F04460F469046994648
:10323000DDE90CAB0E9EFFF707FF054694F83D0055
:1032400020287DD1192301224D492046009502F006
:10325000C7F810B10220BDE8FC9F00BF94F83C0005
:10326000012801D10220F6E7012084F83C0000BFCC
:103270002068006800F0010028B92068006840F06C
:103280000100216808602068006820F4006021685F
:103290000860212084F83D00402084F83E00002092
:1032A0002064C4F824A0A4F82AB0608D2085354895
:1032B000E0624B46424639462046CDE9006501F0C2
:1032C000F1FF08B10120C6E731E02A463146204629
:1032D00002F02BF950B1206C042805D12068006859
:1032E00040F40070216808600120B4E7606A00784B
:1032F00021680861606A401C6062208D401E208544
:10330000608D401E608520684069C0F3800070B108
:10331000208D60B1606A007821680861606A401C95
:103320006062208D401E2085608D401E6085208D4E
:103330000028CAD12A463146204602F023F800E090
:103340001CE050B1206C042805D12068006840F4CE
:1033500000702168086001207DE72068006840F463
:10336000007021680860202084F83D00002084F867
:103370003E0000BF84F83C0000BF6CE702206AE713
:10338000020010000000FFFF10B586B004460020C8
:1033900002900390049005901A49206888422FD12A
:1033A00000BF1948806940F0080017498861084645
:1033B000806900F00800019000BF00BF4FF440702A
:1033C0000290122003900320059002A90F48FFF7F6
:1033D00093FC00BF0E49486840F0E06040F00200F6
:1033E000486000BF00BF0848C06940F400100649AB
:1033F000C8610846C06900F40010019000BF00BF1A
:1034000006B010BD0054004000100240000C014006
:103410000000014003480068034909780844014955
:1034200008607047880000209000002010B5084810
:10343000006840F0100006490860032000F0CCF856
:103440000F2000F007F800F049F8002010BD000040
:103450000020024070B588B00446002500260022F6
:1034600021461D2000F07AF81D2000F067F800BF0B
:103470001648C06940F002001449C8610846C06996
:1034800000F00200019000BF00BF02A903A800F0F5
:103490009FFB00F0C5FB45000D48B5FBF0F0461E54
:1034A0000C480D49086040F2E7310B48C1604660A6
:1034B00000210161816001F0A3F920B9064801F003
:1034C000F3F908B070BD0120FBE7000000100240D6
:1034D00040420F0000040040180C002008B500BF57
:1034E0001448806940F001001249886108468069EB
:1034F00000F00100009000BF00BF00BF0846C06997
:1035000040F08050C8610846C06900F080500090CB
:1035100000BF00BF00220F21901E00F01FF800BF67
:103520000549486820F0E06040F00070486000BF46
:1035300008BD00000010024000000140014608469E
:10354000002809DB00F01F0301229A4043099B0079
:1035500003F1E023C3F8002100BF70472DE9F05FBD
:1035600080460D461646002705F088F8074639467E
:103570002A46334601F00700C0F1070ABAF1040FEA
:1035800002D94FF0040A01E0C0F1070AD14600F168
:10359000040ABAF1070F02D24FF0000A01E0A0F1CD
:1035A000030AD4464FF0010A0AFA09FAAAF1010AFD
:1035B0000AEA020A0AFA0CFA4FF0010B0BFA0CFBAA
:1035C000ABF1010B0BEA030B4AEA0B042146404620
:1035D00005F05CF8BDE8F09F00BF00F00702064B65
:1035E00019684FF6FF031940044B0B4343EA0221CD
:1035F000014B196000BF70470CED00E00000FA05B8
:10360000012001490862704700000E422DE9F04F89
:1036100089B080467CA1D1E90023D1E90201CDE93E
:103620000523CDE907017CA3D3E901021968DB6812
:1036300002AC0DC401914FF0000900250026AB46F5
:10364000AA460027002400200090B8F1040F59D0AA
:1036500006DCB8F1010F76D0B8F1020F74D1C0E0EA
:10366000B8F1080F72D0B8F1100FF7D16E48446866
:10367000006800F08070002843D005A8C4F383419F
:10368000465C04F4803058B36748C06A00F00F000D
:1036900001A911F800906448C06A00F48030A0B11C
:1036A0006148C06AC0F30310471C5F48C06AC0F39A
:1036B000032000F1020B5D48B0FBF7F000FB0BF0BC
:1036C000B0FBF9F000FB06F504E05848B0FBF9F058
:1036D00000FB06F59DF82100B04204D16D0802E020
:1036E000534806FB00F55048406800F48000B0F5F0
:1036F000800F01D1009504E068000321B0FBF1F0D8
:1037000000907BE04848C06A00F4003018B900F02F
:10371000A7FA009016E04448006800F0805088B195
:103720004148C06AC0F30310471C3F48C06AC0F359
:10373000033000F1020A3D48B0FBF7F000FB0AF04D
:10374000400000905AE022E057E0FFE73648C06AA8
:1037500000F4802018B900F083FA009016E0324897
:10376000006800F0805088B12F48C06AC0F3031091
:10377000471C2D48C06AC0F3033000F1020A2B48F1
:10378000B0FBF7F000FB0AF04000009036E026485E
:10379000046A04F44070B0F5807F06D104F00200A2
:1037A00018B14FF4004000901AE004F44070B0F5F6
:1037B000007F08D11C48406A00F0020018B149F6A9
:1037C000404000900CE004F44070B0F5407F07D119
:1037D0001548006800F4003010B14FF2244000900A
:1037E0000CE000F02DFA10494968C1F38131491C01
:1037F0004900B0FBF1F0009000E000BF00BF00986E
:1038000009B0BDE8F08F00000000040506070809B4
:1038100000000000000D0000010203040506070877
:10382000090A0B0C0D0E0F100010024000127A0056
:1038300000093D002DE9F843044600260025002735
:10384000207800F0010000286ED0A8467948C069B1
:1038500000F0805078B900BF7648C06940F08050D1
:103860007449C8610846C06900F08050009000BFEC
:1038700000BF4FF001087048006800F48070B8B9CC
:103880006D48006840F480706B490860FFF7DCFB0E
:10389000064607E0FFF7D8FB801B642802D9032007
:1038A000BDE8F8836448006800F480700028F1D017
:1038B0006048006A00F440752DB3A08800F44070A1
:1038C000A84220D05B48006A20F4407501205B4983
:1038D0000860002008605748056205F0010090B1BB
:1038E000FFF7B2FB064608E0FFF7AEFB801B41F294
:1038F0008831884201D90320D2E74E48006A00F09F
:1039000002000028F0D04B48006A20F44070616843
:10391000084348490862B8F1010F04D10846C0695C
:1039200020F08050C86100BF207800F0020002281B
:1039300007D14048406820F44040A16808433D4911
:103940004860207800F00400042807D13948C06A94
:1039500020F40030E16808433649C862207800F05E
:103960000800082807D13348C06A20F48020216964
:1039700008433049C8622F48C06A00F4003020B9BB
:103980002C48C06A00F4802000B10127012F41D1EA
:103990002848006800F0805090BB2648006800F07E
:1039A000806040B12348C06A00F0F001A069814204
:1039B00001D0012074E71F48C06A20F0F000A1691F
:1039C00008431C49C8620846C06A20F47040616917
:1039D00008431849C862012019490867FFF734FBFA
:1039E000064606E0FFF730FB801B642801D9032060
:1039F00056E71048006800F000500028F2D009E0B7
:103A0000FFE70C48C06A00F470406169884201D049
:103A1000012045E7207800F01000102807D1054864
:103A2000406820F48000E1690843024948600020B2
:103A300036E700000010024000700040400442429F
:103A40000000424270B504460D460CB9012070BD1D
:103A50005A48006800F00700A8420ED25748006894
:103A600020F007002843554908600846006800F028
:103A70000700A84201D00120E9E7207800F0020009
:103A800002281DD1207800F00400042805D14C48FC
:103A9000406840F4E0604A494860207800F008003F
:103AA000082805D14648406840F4605044494860C1
:103AB0004348406820F0F000A1680843404948604E
:103AC000207800F0010078B36068012806D13C48F6
:103AD000006800F4003090B90120B8E7606802285F
:103AE00006D13748006800F0007040B90120AEE709
:103AF0003348006800F0020008B90120A7E7304809
:103B0000406820F00300616808432D494860FFF7D2
:103B10009BFA064609E0FFF797FA801B41F28831CD
:103B2000884202D9032092E707E02548406800F068
:103B30000C006168B0EB810FEDD12048006800F007
:103B40000700A8420ED91D48006820F0070028434E
:103B50001A4908600846006800F00700A84201D032
:103B6000012074E7207800F00400042807D11448ED
:103B7000406820F4E060E16808431149486020781B
:103B800000F00800082808D10D48406820F4605073
:103B9000216940EAC1000A49486000F061F808491B
:103BA0004968C1F30311074A515CC84006490860DF
:103BB00006480068FFF74EFC002048E7002002405E
:103BC00000100240C0980108940000208C000020E2
:103BD0000F2202600D4A526802F0030242600B4A53
:103BE000526802F0F0028260084A526802F4E06211
:103BF000C260064A526802F46052D2080261044A66
:103C0000126802F007020A607047000000100240CC
:103C10000020024001480068704700009400002026
:103C200000B5FFF7F7FF04494968C1F30221034AD1
:103C3000515CC84000BD000000100240D09801084F
:103C400000B5FFF7E7FF04494968C1F3C221034A01
:103C5000515CC84000BD000000100240D09801082F
:103C60002DE9F04F8BB03CA2D2E901311068D26847
:103C7000CDE908310A9207903BA3D3E90020D3E9AC
:103C8000021304AC0BC403924FF00009CB46CA46A2
:103C9000002400200290019000903748D0F8049052
:103CA00009F00C0000284FD0042802D008284AD17F
:103CB00002E0324802904AE007A8C9F38341445C1D
:103CC00009F48030C0B32C48C06A00F00F0003A98B
:103CD00011F800B02848C06A00F4803008B32648C4
:103CE000C06AC0F30310401C01902348C06AC0F3AF
:103CF0000320801C00900198A0FB0B5006461F4932
:103D00000098A1FB00210023A2FB047C01FB04C15D
:103D100002FB03112A4633463846FCF783FA8246F3
:103D200003E016486043B0FBFBFA9DF82900A0426F
:103D300006D14FEA5A0A03E0FFE7114804FB00FAF4
:103D4000CDF808A003E000BF0C48029000BF00BF00
:103D500002980BB0BDE8F08F0000040506070809C3
:103D600000000000000D0000010203040506070822
:103D7000090A0B0C0D0E0F100010024000127A0001
:103D800000093D00F8B504460CB90120F8BD2078C3
:103D900000F00100002878D0FD48406800F00C00D9
:103DA00004280CD0FA48406800F00C00082811D113
:103DB000F748406800F48030B0F5803F0AD1F448FD
:103DC000006800F4003000285FD0A06800285CD1B3
:103DD0000120DBE700BFA068B0F5803F06D1EC48CA
:103DE000006840F48030EA49086028E0A06858B9CB
:103DF000E748006820F48030E5490860084600681C
:103E000020F4802008601AE0A068B0F5A02F0BD144
:103E1000DF48006840F48020DD49086008460068FB
:103E200040F4803008600AE0D948006820F480300F
:103E3000D74908600846006820F48020086000BF69
:103E4000A06888B1FFF700F9054606E0FFF7FCF827
:103E5000401B642801D9032098E7CD48006800F48E
:103E600000300028F2D010E0FFF7EEF8054606E03B
:103E7000FFF7EAF8401B642801D9032086E7C4480D
:103E8000006800F400300028F2D1207800F0020031
:103E9000022857D1BE48406800F00C0050B1BC4821
:103EA000406800F00C00082818D1B948406800F4B8
:103EB000803098B9B648006800F0020020B160690F
:103EC000012801D0012061E7B148006820F0F80026
:103ED000A16940EAC100AE49086033E06069E8B119
:103EE0000120AC490860FFF7AFF8054606E0FFF790
:103EF000ABF8401B022801D9032047E7A44800681B
:103F000000F002000028F2D0A148006820F0F8007C
:103F1000A16940EAC1009E49086013E000209D4964
:103F20000860FFF791F8054606E0FFF78DF8401BA3
:103F3000022801D9032029E79548006800F0020013
:103F40000028F2D1207800F0080008282DD1E0697F
:103F5000B8B1012090490860FFF776F8054606E001
:103F6000FFF772F8401B022801D903200EE78848AA
:103F7000406A00F002000028F2D0012003F0C4FCE7
:103F800013E0002084490860FFF75EF8054606E06C
:103F9000FFF75AF8401B022801D90320F6E67C48B7
:103FA000406A00F002000028F2D1207800F00400FE
:103FB000042873D100277648C06900F0805070B99A
:103FC00000BF7348C06940F080507149C86108461D
:103FD000C06900F08050009000BF00BF01276F480B
:103FE000006800F48070B0B96C48006840F48070DC
:103FF0006A490860FFF728F8054606E0FFF724F84D
:10400000401B642801D90320C0E66448006800F41E
:1040100080700028F2D000BF2069012806D15C48DA
:10402000006A40F001005A49086227E0206958B947
:104030005748006A20F00100554908620846006AA6
:1040400020F00400086219E0206905280BD15048CF
:10405000006A40F004004E4908620846006A40F0D9
:10406000010008620AE04A48006A20F0010048495D
:1040700008620846006A20F00400086200BF206958
:10408000A0B1FEF7E1FF054609E0FEF7DDFF401BAA
:1040900041F28831884202D9032077E622E03C4889
:1040A000006A00F002000028EFD012E0FEF7CCFF1B
:1040B000054608E0FEF7C8FF401B41F28831884200
:1040C00001D9032062E63248006A00F002000028AD
:1040D000F0D1012F05D12E48C06920F080502C4925
:1040E000C86100BFE06AA0B32948406800F480308E
:1040F000B0F5803F0ED12648406800F00C0008283B
:1041000008D12348C06A00F48030B0F5803F01D167
:1041100001203BE6E06A022850D11D48006800F00B
:10412000805040B11A48C06A00F0F001606B8142D3
:1041300001D001202AE6002016498866FEF784FF98
:10414000054607E0FEF780FF401B642802D90320E4
:104150001CE64DE00E48006800F000600028F1D138
:104160000B48C06A20F0F000616B08430849C86240
:104170000846C06A20F47060216B08430449C86295
:10418000012004498866FEF75FFF05460FE0000046
:104190000010024000004242800442420070004091
:1041A000FEF752FF401B642801D90320EEE54E487C
:1041B000006800F000600028F2D019E04A48C06AA8
:1041C00020F480304849C862002048498866FEF7DC
:1041D0003BFF054606E0FEF737FF401B642801D988
:1041E0000320D3E54048006800F000600028F2D1C9
:1041F000206AE0B33C48406800F00C0008285ED01C
:10420000206A022846D1002038490866FEF71CFFC4
:10421000054606E0FEF718FF401B022801D90320DF
:10422000B4E53148006800F000700028F2D1606AFF
:10423000B0F5803F0DD12C48C06A616808432A4917
:10424000C8620846C06A20F00F00E16808432649AA
:10425000C862D4E9090108432349496821F474116B
:1042600008432149486001202049086600E038E001
:10427000FEF7EAFE054606E0FEF7E6FE401B0228D2
:1042800001D9032082E51848006800F0007000287A
:10429000F2D026E0002015490866FEF7D5FE054657
:1042A00006E0FEF7D1FE401B022801D903206DE590
:1042B0000D48006800F000700028F2D111E0206A7B
:1042C000012800D162E50848466806F48031606A3A
:1042D000814204D106F47011A06A814201D001200C
:1042E00054E5002052E50000001002400000424268
:1042F000F8B505460C4616460020009005B10CB9ED
:104300000120F8BD00226946284600F01AF808B1DD
:104310000120F6E7287B2070E87BE070687B607006
:10432000A87BA0705EB1E07803F00DFBE0706078D0
:1043300003F009FB6070A07803F005FBA07000207B
:10434000DFE72DE9F04780460C4691460025002620
:10435000AA460027B8F1000F00D014B90120BDE82B
:10436000F087D8F800004068C0F3800008B1012051
:10437000F5E7404603F0AEFB05464FF46160B5FB40
:10438000F0F7B5FBF0F100FB11503C21B0FBF1F070
:1043900060704FF46160B5FBF0F100FB11503C21FF
:1043A000B0FBF1F201FB1200A070182F39D31820D6
:1043B000B7FBF0FAB7FBF0F100FB1170207040463C
:1043C00003F07CFB0646701C18B1AE4201D9761B87
:1043D00001E04FF0FF360AEB4A00C000C0EB40118D
:1043E000C1EB0020A5EB00152946404603F0E5FB94
:1043F00008B10120B3E7701C38B12E443146404665
:1044000003F0C4FB40B10120A9E73146404603F068
:10441000BDFB08B10120A2E75146404603F0A0FAD7
:1044200000E02770B9F1000F0BD0207803F08BFA71
:104430002070607803F087FA6070A07803F083FA48
:10444000A07000208BE7000070B5044600250CB971
:10445000012070BD607C20B900202074204600F04F
:104460005BF802206074204600F060F918B1042067
:1044700060740120EDE7204603F0CDFA18B1042066
:1044800060740120E5E72068406820F0070021689B
:104490004860A06828B11F48006820F001001D494D
:1044A00008601C48001F006820F46070A168084381
:1044B0001849091F08606068401C08B1656809E078
:1044C0000120FFF7A3F805461DB904206074012000
:1044D000BFE76D1E2068806820F00F0040EA15409D
:1044E000216888602068C06865F30F002168C86093
:1044F000204603F0ADFA18B1042060740120A8E74B
:104500000021E17301216173A17301206074002017
:104510009FE70000306C004038B504460B49206826
:10452000884212D1FFF76CF800BF0948C06940F01B
:1045300000600749C8610846C06900F0006000904B
:1045400000BF00BF01200349086038BD00280040BB
:10455000001002403C0442422DE9F04704460D465B
:10456000904600260027B14604B115B90120BDE8E8
:10457000F08700BF207C012801D10220F7E701204D
:10458000207400BF02206074B8F1000F06D1E978F2
:10459000E17369786173A978A1730BE0E87803F09F
:1045A000C7F9E073687803F0C3F96073A87803F083
:1045B000BFF9A073A27B617BE07B03F0A5FA2073B7
:1045C000207B2870204603F085FA06464FF4616090
:1045D000B6FBF0F9B9F1180F2FD91820B9FBF0F09C
:1045E00000EB4000C000C0EB4011C1EB0020A6EB87
:1045F00000163146204603F0E0FA38B1042060741A
:1046000000BF0020207400BF0120B0E7204603F067
:1046100055FA0746781C80B1B7420ED20B480744C2
:104620003946204603F0B2FA38B10420607400BF66
:104630000020207400BF012099E70120607400BFB2
:104640000020207400BF00BF91E7000080510100EE
:104650002DE9F04704460D4690460026002704B198
:1046600015B90120BDE8F08700BF207C012801D1E9
:104670000220F7E70120207400BF02206074B8F127
:10468000000F0BD128784FF4616148436978C1EB82
:10469000011100EB8100A978461812E0287803F098
:1046A00047F94FF4616100FB01F9687803F040F9C4
:1046B000C0EB001009EB8009A87803F039F909EB89
:1046C00000063146204603F078FA38B104206074C1
:1046D00000BF0020207400BF0120C3E720684068AD
:1046E00020F0050021684860204603F0E7F90746FE
:1046F000781C80B1B7420ED20B4807443946204699
:1047000003F044FA38B10420607400BF0020207424
:1047100000BF0120A6E70120607400BF00202074C4
:1047200000BF00BF9EE700008051010070B5044645
:1047300000250CB9012070BD2068406820F00800F9
:1047400021684860FEF780FC054607E0FEF77CFC28
:10475000401BB0F57A7F01D90320ECE72068406860
:1047600000F008000028F1D00020E4E7704770470F
:1047700030B502460B4600BF92F83C00012801D13B
:10478000022030BD012082F83C0000BF022082F8E8
:104790003D00106844681068816824F0700418684F
:1047A000044310684460124D1068A8420FD010688E
:1047B000B0F1804F0BD00F4D1068A84207D00E4DBE
:1047C0001068A84203D00D4D1068A84205D121F011
:1047D00080015868014310688160012082F83D0023
:1047E00000BF002082F83C0000BF00BFC9E7000006
:1047F000002C01400004004000080040000C004074
:1048000010B504460CB9012010BD94F83D0028B93C
:10481000002084F83C00204600F026F8022084F8AE
:104820003D00211D206803F0B7FC012084F84600FC
:1048300000BF84F83E0001213F2001554020015572
:104840004120015500BF00BF012084F842004320F1
:104850000155442001554520015500BF012084F831
:104860003D000020D0E7000038B504462068B0F1D4
:10487000804F15D100BF0B48C06940F001000949C5
:10488000C8610846C06900F00100009000BF00BF89
:10489000002205211C20FEF761FE1C20FEF74EFEC3
:1048A00038BD000000100240014691F83D0001288B
:1048B00001D001207047022081F83D000868C068DF
:1048C00040F001000B68D860144B086898420FD084
:1048D0000868B0F1804F0BD0114B0868984207D0A0
:1048E000104B0868984203D00F4B086898420CD1CF
:1048F0000868806800F00702062A0CD00868006883
:1049000040F001000B68186005E00868006840F09E
:1049100001000B6818600020CCE70000002C01406B
:104920000004004000080040000C00402DE9F04168
:1049300004460D4600BF94F83C00012802D1022035
:10494000BDE8F081012084F83C0000BF022084F81B
:104950003D002068866826F0770626F47F462068AA
:1049600086602868502833D00CDC202850D004DC26
:1049700000284BD0102851D149E0302849D0402898
:104980004CD139E060282DD0702807D0B0F5805F79
:1049900003D0B0F5005F41D10DE040E0D5E902134E
:1049A0006A68206803F03AFC2068866846F077065B
:1049B0002068866033E0D5E902136A68206803F056
:1049C0002DFC2068806840F480402168886026E0E3
:1049D000EA686968206803F035FC5021206803F01C
:1049E00028FC1CE0EA686968206803F03EFC60214E
:1049F000206803F01EFC12E0EA686968206803F092
:104A000021FC4021206803F014FC08E000BF00BF37
:104A100000BF2968206803F00CFC00E000BF00BF65
:104A2000012084F83D0000BF002084F83C0000BF56
:104A300000BF85E7704710B5044620680069C0F3E1
:104A40004000D8B12068C068C0F34000B0B16FF03A
:104A5000020021680861012020772068806900F049
:104A6000030018B12046FFF7E5FF05E0204600F0FF
:104A7000ADF8204600F0ABF80020207720680069F0
:104A8000C0F38000D8B12068C068C0F38000B0B126
:104A90006FF0040021680861022020772068806997
:104AA00000F4407018B12046FFF7C4FF05E020462F
:104AB00000F08CF8204600F08AF80020207720686B
:104AC0000069C0F3C000D8B12068C068C0F3C0005E
:104AD000B0B16FF0080021680861042020772068D9
:104AE000C06900F0030018B12046FFF7A3FF05E0FE
:104AF000204600F06BF8204600F069F8002020778F
:104B000020680069C0F30010D8B12068C068C0F305
:104B10000010B0B16FF01000216808610820207704
:104B20002068C06900F4407018B12046FFF782FF8A
:104B300005E0204600F04AF8204600F048F8002042
:104B400020772068006900F0010058B12068C06833
:104B500000F0010030B16FF00100216808612046CB
:104B600000F036F820680069C0F3C01058B1206822
:104B7000C068C0F3C01030B16FF0800021680861D8
:104B80002046FFF7F3FD20680069C0F3801058B19C
:104B90002068C068C0F3801030B16FF04000216819
:104BA0000861204600F03EF820680069C0F340101C
:104BB00058B12068C068C0F3401030B16FF02000D9
:104BC000216808612046FFF7D2FD10BD704770478D
:104BD00010B5044610492068884201D1FEF71AFC3E
:104BE0002068B0F1804F15D10C48B0F902000028C0
:104BF00005DB0A484088401E00B208494880084842
:104C0000B0F90200002805DB05484088401E00B2CC
:104C10000349488010BD000000040040A8060020A1
:104C20009406002070477047704700002DE9F84F48
:104C30000446206805682068C668206847694FF008
:104C40000009CA4605F00F09B9F1000F0AD105F0B5
:104C5000200038B106F0200020B1204603F057FBB9
:104C6000BDE8F88FB9F1000F71D007F0010018B955
:104C700006F4907000286AD005F0010030B106F407
:104C8000807018B1206C40F00100206405F0040031
:104C900030B107F0010018B1206C40F00200206430
:104CA00005F0020030B107F0010018B1206C40F0AF
:104CB0000400206405F0080048B106F0200010B997
:104CC00007F0010018B1206C40F008002064206C4F
:104CD00068B305F0200028B106F0200010B120468E
:104CE00003F015FB20684069C0F3801A206C00F0C7
:104CF000080010B9BAF1000F22D0204603F0DCFA08
:104D00002068406900F04000B0B12068406920F0A0
:104D1000400021684861A06B50B15648A16B4863C0
:104D2000A06BFCF7E7FF10B1A06B416B88470CE06C
:104D30002046FFF779FF08E02046FFF775FF04E003
:104D40002046FFF771FF0020206489E7FFE7206B12
:104D5000012878D105F01000002874D006F010006A
:104D6000002870D000BF00200090206800680090EC
:104D700020684068009000BF00BF2068406900F0D4
:104D80004000C0B3A06B006840681FFA80F8B8F11B
:104D9000000F2FD0A08D40452CDDA4F82E80A06BF5
:104DA000806920281FD02068C06820F480702168A6
:104DB000C8602068406920F00100216848612068CF
:104DC000406920F0400021684861202084F83E00BE
:104DD000002020632068C06820F010002168C860AF
:104DE000A06BFCF75CFFA08DE28D801A81B220469B
:104DF000FFF719FF34E7FFE7A08DE18D401A1FFA96
:104E000080F8E08DE8B1B8F1000F1AD02068C068D2
:104E100020F490702168C8602068406920F001008B
:104E200021684861202084F83E000020206320682B
:104E3000C06820F010002168C86041462046FFF796
:104E4000F2FE0DE7FFE705F0800030B106F08000CC
:104E500018B1204603F06FFB02E705F0400030B1C7
:104E600006F0400018B1204603F041FAF8E600BF12
:104E7000F6E60000A582000810B504460CB9012032
:104E800010BDA06900B100E000BF94F83D0028B952
:104E9000002084F83C00204600F028F8242084F804
:104EA0003D002068C06820F400502168C86020469A
:104EB00003F0A0FA2068006920F49040216808619E
:104EC0002068406920F02A00216848612068C06895
:104ED00040F400502168C86000202064202084F83D
:104EE0003D0084F83E000020CAE7000010B586B0FF
:104EF00004460020029003900490059087492068A2
:104F0000884243D100BF8648C06940F4801084497C
:104F1000C8610846C06900F48010019000BF00BF5E
:104F200000BF0846806940F010008861084680692B
:104F300000F01000019000BF00BF00BF084680696C
:104F400040F0200088610846806900F02000019050
:104F500000BF00BF88140290022003900320059038
:104F600002A97048FDF7C8FE0420029000200390BB
:104F7000049002A96C48FDF7BFFE002205213520F0
:104F8000FEF7ECFA3520FEF7D9FAC5E0674920684C
:104F9000884237D100BF6248806940F48040604950
:104FA00088610846806900F48040019000BF00BF1E
:104FB00000BF0846806940F00400886108468069A7
:104FC00000F00400019000BF00BF481502900220CD
:104FD00003900320059002A95548FDF78DFE4FF47C
:104FE0008060029000200390049002A95048FDF7D1
:104FF00083FE002205212520FEF7B0FA2520FEF7CA
:105000009DFA89E04B49206888423FD100BF44485F
:10501000C06940F400304249C8610846C06900F4E4
:105020000030019000BF00BF00BF0846806940F01B
:10503000200088610846806900F02000019000BFD0
:1050400000BF20200290022003900320059002A9B7
:105050003548FDF751FE4020029000200390049057
:1050600002A93148FDF748FE00BF3349486840F0C7
:10507000E06040F00800486000BF002205212620C3
:10508000FEF76CFA2620FEF759FA45E02B49206816
:10509000884241D100BF2248C06940F480202049A5
:1050A000C8610846C06900F48020019000BF00BFBD
:1050B00000BF0846806940F010008861084680699A
:1050C00000F01000019000BF00BF08150290022000
:1050D00003900320059002A91248FDF70DFE4FF43E
:1050E0000060029000200390049002A90D48FDF793
:1050F00003FE00BF1049486820F0300040F0E06037
:1051000040F01000486000BF002205212720FEF774
:1051100025FA2720FEF712FA06B010BD0050004015
:10512000001002400010014000140140003801400E
:1051300000080140004400400000014000480040D9
:1051400070B504460D46164694F83E00202816D148
:1051500005B10EB9012070BD00BF94F83C000128D4
:1051600001D10220F7E7012084F83C0000BF0020B5
:10517000206332462946204603F0BAF9EBE70220C5
:10518000E9E7000010B5044607492068884209D1C4
:10519000C82206490648FBF763FFC82203490548B1
:1051A000FFF7CEFF10BD000000500040FE010020C0
:1051B00010E00020080B002010B5034693F83D00D6
:1051C000202823D101B10AB9012010BD00BF93F8F6
:1051D0003C00012801D10220F7E7012083F83C00C0
:1051E00000BF19629A84DA8400201864212083F8B1
:1051F0003D0000BF002083F83C0000BF1868C06875
:1052000040F080001C68E0600020DEE70220DCE760
:1052100010B504460E492068884205D101210D4889
:1052200000680AF0C7FD12E00B492068884205D1EA
:105230000121084800680AF0BDFD08E00749206820
:10524000884204D10121034800680AF0B3FD10BD73
:10525000004400406C000020004800400050004026
:1052600000BFFEE7014608684069C0F38020B0B186
:105270006FF480600A68506100200863202081F884
:105280003D00002081F83E00086C40F004000864F6
:1052900000BF002081F83C0000BF012070470020C3
:1052A000FCE700002DE9F843044688461546994678
:1052B000DDE908672068006840F4807021680860B4
:1052C000334600224FF001112046009700F088F885
:1052D00060B12068006800F48070B0F5807F02D172
:1052E0004FF4007020640320BDE8F88308F0FE004E
:1052F000216808613B4632462149204600F0B3F858
:1053000008B10120F0E700BF00200090206840694C
:10531000009020688069009000BF00BF3A46314687
:10532000204600F002F950B1206C042805D1206815
:10533000006840F40070216808600120D4E7B9F1EA
:10534000010F03D1E8B22168086117E0C5F3072017
:10535000216808613A463146204600F0E6F850B12F
:10536000206C042805D12068006840F40070216892
:1053700008600120B8E7E8B2216808610020B3E7BF
:105380000200010070B504460D46164620E0204696
:10539000FFF768FF08B1012070BD681CC0B1FDF7C0
:1053A00053FE801BA84200D895B90020206320201E
:1053B00084F83D00002084F83E00206C40F020007E
:1053C000206400BF002084F83C0000BF0120E3E718
:1053D00020684069C0F380000028D8D00020DBE7B7
:1053E0002DE9F04104460D4617461E46DDF81880AB
:1053F0001CE0701CD0B1FDF727FEA0EB0800B04206
:1054000000D89EB900202063202084F83D000020B1
:1054100084F83E00206C40F02000206400BF002093
:1054200084F83C0000BF0120BDE8F081C5F30740CF
:1054300001280AD120684069A9B20840A9B288426F
:1054400001D101200BE0002009E020688069A9B2A9
:105450000840A9B2884201D1012000E00020B842F2
:10546000C7D00020E0E72DE9F04104460D4616467E
:105470001F463DE020684069C0F38020E8B1206805
:10548000006840F40070216808606FF48060216853
:10549000486100202063202084F83D00002084F82B
:1054A0003E00206C40F00400206400BF002084F81F
:1054B0003C0000BF0120BDE8F081701CC0B1FDF7C9
:1054C000C3FDC01BB04200D896B900202063202045
:1054D00084F83D00002084F83E00206C40F020005D
:1054E000206400BF002084F83C0000BF0120E2E7F8
:1054F000C5F3074001280AD120684069A9B20840D5
:10550000A9B2884201D101200BE0002009E0206807
:105510008069A9B20840A9B2884201D1012000E007
:1055200000200028A6D00020C5E770B504460D462F
:10553000164620E02046FFF795FE08B1012070BD19
:10554000681CC0B1FDF780FD801BA84200D895B94A
:1055500000202063202084F83D00002084F83E00D5
:10556000206C40F02000206400BF002084F83C0044
:1055700000BF0120E3E720684069C0F3C0100028A5
:10558000D8D00020DBE700001749012005E0174ACA
:1055900032F8102021F8022B401C6428F7DB134A54
:1055A000B2F83821104B9B1EA3F838211A465288B6
:1055B0000F4B1B789A4211D006220E4B1A805F22A5
:1055C0000D4B1A70084A921E5288012A03D10123FA
:1055D000084A538402E00023064A5384024A921E7A
:1055E0009278034B1A7070479A0200209CE10020C9
:1055F00064020020A80600206502002010B5674A5A
:105600005169106BFAF7D2FE0446FAF715FF6449A8
:1056100008600846006800287ADDFBF75DF818B1DD
:10562000FBF75AF802283DD15E48C088012814D102
:1056300022215D4801825949C86BFAF7FDFE4042BC
:105640005A490860554AD16B5069FAF75DFE044625
:10565000FAF70BFF5649888182E051480068FAF753
:10566000DDFE04464D48C16B2046FAF713FF0AD20F
:1056700022214D4801824949C86BFAF7DDFE4042BC
:105680004A49086007E022214748018244480068EF
:105690004042464908604149486BFAF7E6FE4449F2
:1056A00088815DE0FBF718F8012859D13D48C08892
:1056B00001280CD122213C48018200203B4908608E
:1056C00036494869FAF7D1FE3949888148E0334ABA
:1056D000116A106BFAF7DEFE0CD2222132480182E9
:1056E0000020324908602D49086AFAF7BEFE3049A9
:1056F000888135E022212C48018200202B49086056
:105700002649486BFAF7B1FE2949888128E0FFE76E
:10571000FAF7E2FF18B1FAF7DFFF012808D12221DA
:10572000214801821E48006840422049086011E07B
:10573000FAF7D2FF02280DD122211B480182174A15
:105740001168106CFAF738FE0446FAF775FE40420D
:10575000164908601149486BFAF787FE1449888199
:1057600002F09EFA114800684FF47A7148430F49DD
:105770000860084600684FF6FF7101EA20410A48B8
:1057800041820A48008881B207488182002002F0E5
:10579000FFFB042002F076FB10BD00004406002051
:1057A0000000002098020020A8060020040000202D
:1057B0009406002010B5504A5169106BFAF7F6FDB7
:1057C0000446FAF739FE4D4908600846006800288B
:1057D00068DDFAF781FF002835D14948C0880128E3
:1057E00014D12221474801824349C86BFAF724FEAD
:1057F000404245490860404AD16B5069FAF784FD40
:105800000446FAF732FE4149888157E022213D489B
:1058100001823B48B0F8780038490968884206DAC6
:105820003748B0F8780040423749086004E0334810
:1058300000684042344908602F49486BFAF715FE6A
:10584000324988813AE0FAF747FF012836D1222110
:105850002C4801822A48C088012809D100202A4901
:10586000086025494869FAF7E7FD2849888125E05D
:10587000214A116A106BFAF70DFE09D20020224965
:1058800008601D49086AFAF7F0FD2049888115E093
:1058900000201D4908601849486BFAF7E6FD1B49CE
:1058A00088810BE0222117480182002016490860F8
:1058B0001149486BFAF7D9FD1449888102F0F0F9D3
:1058C000114800684FF47A7148430F490860084650
:1058D00000684FF6FF7101EA20410A4841820A48F8
:1058E000008881B207488182002002F051FB042029
:1058F00002F0C8FA10BD000044060020000000209D
:1059000098020020A8060020040000209406002031
:1059100010B52D48C08A10B1012822D10DE04020D9
:105920002949A1F86C000846B0F918004FF47A71C3
:10593000484326490860002413E022202249A1F8A8
:105940006C000846B0F918004FF47A7148431F49BB
:1059500008601D48B0F91A004FF47A7100FB01F499
:1059600000BF00BF1A49086AFAF77FFD194988810C
:105970001548B0F86C101848018202F091F91348EC
:1059800000684FF47A714843104908604FF47A7008
:105990004443084600684FF6FF7101EA20410E4873
:1059A00041820A48008881B20B4881824FF6FF701D
:1059B00000EA24410848C1820483002002F0E8FA8A
:1059C000042002F05FFA10BD9802002004000020BD
:1059D0004406002094060020A80600202DE9F04788
:1059E00005460C461646A0780702E0780743E7B95B
:1059F00004F10609B01F1FFA80F8A079012802D02F
:105A000003280ED106E04146484600F09DFF0120E4
:105A1000288009E041464846FAF798FF012028808F
:105A200002E00020288000BF00BFBDE8F087000032
:105A30002DE9F041044688461546A81D87B26088C6
:105A4000000A11490870A0784870280A08714D7141
:105A50002A4641460C48801DFAF725FC606801285B
:105A600010D13A460849A06808F0B2F946B2002EB3
:105A700005DAA06806F030FA3046BDE8F0816088AB
:105A8000401C608078B2F8E758E5002000B58BB084
:105A90001E481F4908600920486000211C48816099
:105AA000C1604FF4A021016100214161017641767E
:105AB0008176C17601774177FBF7F3FE08B1FBF7FA
:105AC000F9FA0020019002900390049005900F20B5
:105AD0000690002007900120089009900F200A905E
